:0300000002000EED
:0C000E00787FE4F6D8FD758109020055EA
:0400CB000208000027
:1000BB00758901758CD8758AF0D2AFD2A9D28C22F2
:050003001200BB80FEAD
:03000B0002009A56
:10009A00C0E0758CD8758AF00509E5097002050873
:1000AA00D290646445087006F508F509C290D0E05C
:0100BA003213
:10001A00020003E493A3F8E493A34003F68001F2F9
:10002A0008DFF48029E493A3F85407240CC8C333E7
:10003A00C4540F4420C8834004F456800146F6DFB6
:10004A00E4800B01020408102040809000CBE47E7B
:10005A00019360BCA3FF543F30E509541FFEE493AB
:10006A00A360010ECF54C025E060A840B8E493A372
:10007A00FAE493A3F8E493A3C8C582C8CAC583CA9D
:10008A00F0A3C8C582C8CAC583CADFE9DEE780BE55
:0100CF000030
:00000001FF
