:03000000020B2EC2
:0C0B2E00787FE4F6D8FD75811A020B7583
:100C6700D6C7C4DCD0A1B3B500CAB1BCE4A3BA00EF
:100C770020007300CBD9B6C8A3BA00636D2F7300E9
:0A0C8700C2B7B3CCA3BA00636D003E
:10094F00120CCE120C91120D8A120CFAE50CB40790
:10095F00004003020A6990096CF828287302098184
:10096F000209890209D00209F90209FF020A0802E5
:10097F000A38120C36050C020A6920960C209709CA
:10098F00209006209103750C02209603309709756D
:10099F000C0575080D75095F209003309109750CD2
:1009AF000675080D750950209606209703020A69EF
:1009BF00209006209103020A69120DB97518018063
:1009CF00FE30A21230A70F30B60C30B709E4FDFF8E
:1009DF00120BBA750C0130A70320B703750C033047
:1009EF00B60320A275750C048070E4FD7F5080045F
:1009FF007D50E4FF120BBA805E120DA7120D508EC0
:100A0F000A8F0BC3E50B9509F50EE50A9508F50D51
:100A1F00D3E50E940AE50D9400403F30B73C30B655
:100A2F003930A73630A233802E120DB0120D5F8EE3
:100A3F000A8F0BC3E50B9509F50EE50A9508F50D21
:100A4F00D3E50E940AE50D9400400F30B70C30B685
:100A5F000930A70630A203E4F50CE518600302097C
:100A6F005B120D508E0F8F107C007D0F120AC78EF8
:100A7F000F8F107D0C120AD98E0F8F10AD10AC0F87
:0D0A8F00AF1AAE1912080075180102095BBC
:100800008E118F128C138D147BFF7A0C79677D0209
:100810007F80120C027BFF7A0C7970E4FD7F9012CE
:100820000C027BFF7A0C79777D037F90120C02AE6D
:1008300011AF127C007D64120AD9EF2430FF120D33
:100840007CAE11AF127C007D0A120AD97C007D0AB1
:10085000120AD9ED2430FF120D7CAE11AF127C00CC
:100860007D0A120AD9ED2430FF120D7C7BFF7A0C31
:1008700079797D057F90120C027BFF7A0C797BE4FD
:10088000FD7F88120C027BFF7A0C79777D037F88CD
:10089000120C02AC11AD12AE13AF14120AD97C00C7
:1008A0007D0A120AD9EF2430FF120D7CAC11AD1273
:1008B000AE13AF14120AD97C007D0A120AD9ED24B6
:1008C00030FF120D7C7BFF7A0C79827D057F8812C8
:1008D0000C027BFF7A0C7987E4FD7F98120C027B77
:1008E000FF7A0C79777D037F98120C02AE13AF1458
:1008F0007C037DE8120AD9EF2430FF120D7CAE1381
:10090000AF147C007D64120AD97C007D0A120AD9DA
:10091000ED2430FF120D7CAE13AF147C007D0A1263
:100920000AD97C007D0A120AD9ED2430FF120D7C11
:10093000AE13AF147C007D0A120AD9ED2430FF12E9
:0F0940000D7C7BFF7A0C798E7D067F98020C026E
:100CB000EF1FAA0670011E4A6013E4FCFDC3ED9409
:0D0CC00058EC940250EA0DBD00010C80F0CC
:010CCD002204
:100D0F007580FFC2A3D2A4D2A5E58020E7FBC2A5C0
:010D1F0022B1
:0E0D6E00120D0FC2A3C2A4D2A58F80C2A5226F
:0E0D7C00120D0FD2A3C2A4D2A58F80C2A52251
:100C02008B158A168917EF2DFF120D6EAB15AA16DA
:100C1200A917120A9C60130517E51770020516142E
:100C2200F9120A9CFF120D7C80E2AB15AA16A917D5
:040C3200E4020AB519
:100CCE00D2A67F30120D6E7F02120D6E7F0C120DAA
:060CDE006E7F01020D6EA5
:100D20007F417E00120DC2C2A0D2A1D295C29222F2
:100D30007F257E00120DC2D2A0C2A1C295D29222FE
:090D9500C2A0C2A1D295C29222B3
:090D9E00C2A0D2A1C295C29222AA
:090DA700D2A0C2A1C295C29222A1
:090DB000C2A0C2A1C295D2922298
:090DB900C2A0C2A1C295C292229F
:100C9100E4F5D875D902F5E9F5F975DA4275EA5046
:0F0CA10075FA5075DB4275EB5075FB50D2DE22B1
:090DC2008FEB8FFB8FEA8FFA2200
:100CE400759850438920438780758DF3758BF3D2B3
:060CF4008ED2ACD2AF224B
:040DCB000219000009
:0B0D8A00D2AFD2A8D288D2AAD28A220F
:03000300020D40AB
:100D4000C0E0051AE51A70020519751800D0E032E6
:03001300020DD00B
:010DD00032F0
:100CFA00758955E4F58CF58AF58DF58BD28CD28EF3
:050D0A00D2AF020DB99B
:0E0D5000AF8CEFFEAD8A7C00E42DFFEC3EFE82
:010D5E002272
:0E0D5F00AF8DEFFEAD8B7C00E42DFFEC3EFE71
:010D6D002263
:100C3600C28CC28EAF8DAD8CED2FFFE433FEAD8B33
:100C4600AB8AEB2DFDE433FCEEC313EF13F58CEC0E
:100C5600C313ED13F58A858C8D858A8BD28CD28E43
:010C6600226B
:040BBA00AB05AA07D6
:100BBE00120D507C00EF2AF512EC3EF511120D5F6E
:100BCE007C00EF2BF514EC3EF513E512B51408E599
:100BDE0011B51303120D20D3E5129514E5119513DB
:100BEE004003120D95C3E5129514E51195135003AC
:030BFE00120D9E37
:010C010022D0
:100B3A0002094FE493A3F8E493A34003F68001F279
:100B4A0008DFF48029E493A3F85407240CC8C333BC
:100B5A00C4540F4420C8834004F456800146F6DF8B
:100B6A00E4800B0102040810204080900DCBE47E43
:100B7A00019360BCA3FF543F30E509541FFEE49380
:100B8A00A360010ECF54C025E060A840B8E493A347
:100B9A00FAE493A3F8E493A3C8C582C8CAC583CA72
:100BAA00F0A3C8C582C8CAC583CADFE9DEE780BE2A
:010DCF000023
:100A9C00BB010689828A83E0225002E722BBFE0258
:090AAC00E32289828A83E493228B
:100AB500BB010689828A83F0225002F722BBFE0120
:020AC500F3221A
:100AC700EF8DF0A4A8F0CF8CF0A428CE8DF0A42E43
:020AD700FE22FD
:100AD900BC000BBE0029EF8DF084FFADF022E4CC01
:100AE900F875F008EF2FFFEE33FEEC33FCEE9DECCA
:100AF900984005FCEE9DFE0FD5F0E9E4CEFD22ED10
:100B0900F8F5F0EE8420D21CFEADF075F008EF2F59
:100B1900FFED33FD4007985006D5F0F222C398FD4A
:050B29000FD5F0EA22E7
:00000001FF
